:020000040000FA
:1000000000100020211C0000A9190000A9190000FF
:1000100000000000000000000000000000000000E0
:10002000000000000000000000000000A91900000E
:100030000000000000000000A9190000A91900003C
:10004000A9190000A9190000A9190000A9190000A8
:10005000A9190000A9190000A9190000A919000098
:10006000A9190000A9190000A9190000A919000088
:10007000A9190000A9190000A9190000A919000078
:10008000A9190000A9190000A9190000A919000068
:10009000A9190000A9190000A9190000A919000058
:1000A000A9190000A9190000A9190000A919000048
:1000B000A9190000A9190000A9190000A919000038
:1000C000A9190000A9190000A9190000A919000028
:1000D000A9190000A9190000A9190000A919000018
:1000E000A9190000A9190000A9190000A919000008
:1000F000A9190000A9190000A9190000A9190000F8
:10010000A9190000A9190000A9190000A9190000E7
:10011000A9190000A9190000A9190000A9190000D7
:10012000A9190000A9190000A9190000A9190000C7
:10013000A9190000A9190000A9190000A9190000B7
:10014000A9190000A9190000A9190000A9190000A7
:10015000A9190000A9190000A9190000A919000097
:10016000A9190000A9190000A9190000A919000087
:10017000A9190000A9190000A9190000A919000077
:10018000A9190000A9190000A9190000A919000067
:10019000A9190000A9190000A9190000A919000057
:1001A000A9190000A9190000A9190000A919000047
:1001B000A9190000A9190000A9190000A919000037
:1001C000A9190000A9190000A9190000351C000098
:1001D000A9190000A9190000A9190000A919000017
:1001E000A9190000A9190000A9190000A919000007
:1001F000A9190000A9190000A9190000A9190000F7
:10020000A9190000A919000000F002F800F036F862
:100210000CA030C8083824182D18671EA246AB461B
:1002200054465D46AC4201D100F028F87E460F3EB0
:10023000B6460FCC0126334200D0FB1A3343A24608
:10024000AB461847505A0000705A000000230024A3
:1002500000250026103A01D378C1FBD8520700D3FD
:1002600030C100D50B6070471FB50098019900F0B0
:1002700038FC00F023FE00F0B5FF1FBD05488546A1
:1002800003B402F049FE03BC00F0AEFF00F0CAFF69
:1002900003F052F80010002070B505460C461646D3
:1002A00002E00FCC0FC5103E102EFAD2082E02D35A
:1002B00003CC03C5083E042E07D301CC01C5361F6D
:1002C00003E021782970641C6D1C761EF9D270BD84
:1002D00070470000004870475017002070B5064670
:1002E00000F0E2FB056830460B30C408E400B4427D
:1002F00001D8002070BD68682A46002818D001681F
:10030000A14211D30B46214608318B4208D34368E2
:1003100001194B6003681B1B0B605160046001E016
:1003200041685160001D70BD024640680028E6D15A
:100330002146284600F0C0FB0028DCD170BD70B516
:100340000446051F00F0B0FB0068002C1AD044687A
:1003500001E020466468002C01D0AC42F9D301686A
:100360000A18AA4204D12A6805468918016000E0EB
:10037000456028684119A14205D16168696021681A
:100380004018286070BD6C6070BD10B5202A04DB79
:100390000146203A9140002010BD914020239C1A34
:1003A0000346E3401943904010BD10B5202A04DBFA
:1003B0000846203AD040002110BD0B462024D340EF
:1003C000D040A21A91400843194610BD43435143FF
:1003D00030B55C18010C130C0D4692B25D4380B22F
:1003E00051432C19054655430A0C09044D19624125
:1003F0005843010C00044019514130BDFEB504467C
:1004000010460D46184373D0A6468C460020A41A09
:1004100001469D4167D36646002701243D46B61A32
:100420009D4102D313463A462124654676462F0461
:10043000360C3E432D0CB61A9D4104D3150C1B04FB
:100440002B4312041034654676462F06360A3E4387
:100450002D0AB61A9D4104D3150E1B022B4312021E
:100460000834654676462F0736093E432D09B61AED
:100470009D4104D3150F1B012B431201241D65461A
:100480007646AF07B6083E43AD08B61A9D4104D381
:10049000950F9B002B439200A41C65467646EF0700
:1004A00076083E436D08B61A9D411AD392185B41F7
:1004B000641C16E00018764665464941B71A9D410E
:1004C0000191009009D36046B11A98418E46844646
:1004D000009801990025401C6941DD0752082A4314
:1004E0005B08641EE6D57246634603B0F0BDFFE7C5
:1004F0002046284307D00020C0430146C046C046DE
:1005000022462B46F1E700200146F7E770B5044686
:1005100085690068C10601D5302600E02026C007A5
:1005200007D070BD62683046A1689047206A401CC1
:1005300020626D1EF6D570BD70B5044685690078E1
:10054000C00707D170BD6268A16820209047206A6B
:10055000401C20626D1EF6D570BD000070B50446CB
:10056000C068810713D0800601D5A56A04E0A1699F
:10057000606840182169451A204600F057FC0022A7
:1005800006462946204600F01DF8304670BD002082
:1005900070BD70B5002802D0FFF7E0FF70BD0025E8
:1005A000074C6E1E08E02046FFF7D8FF002800D059
:1005B0003546206D44086400002CF4D1284670BDF7
:1005C00054170020F8B5044616460D464769007BCF
:1005D000800730D0384602F021FD00282BD132466A
:1005E0001026002A25D0012A02D0022A23D104E0B5
:1005F000204600F0A3FB45191BE0384602F0FBFC47
:10060000E16831430028E16004DA204600F0DEFBB7
:100610000120F8BDC9030BD56268E16A914200D898
:100620001146A26989182269891A814200DD0846AB
:100630002D18002D01DA0220F8BDE16A6068E26839
:10064000814206D29103E06203D5012149048A4325
:100650003243A669AE4211DCE16A814201D90B4600
:1006600000E003469F192369FF1AAF4206DD81426D
:1006700001D90F4600E007469F4206D120200243E1
:100680000020A060A56220600DE0AD1BE669AE1BF6
:100690008142A66000D90846C01A281A206058195D
:1006A000606020208243034802400020E260403422
:1006B0002072F8BDBFCFD7FF10B5044603E004F0A9
:1006C000B6FC401C08D020780549641C0028F6D1EF
:1006D0000A2004F0ACFC10BD0020C04310BD000097
:1006E000A8170020F7B516460C460098002843D0FE
:1006F000104600F06FF82078611C61280AD072283B
:1007000002D0772839D102E00125002404E0022537
:10071000042401E02D4D0824022203230127087838
:10072000491C2B2806D0622807D02039C87F74289E
:1007300007D008E01D431443F1E7042005433C4380
:10074000EDE7102004430098214602F069FC411CAB
:1007500013D00021316171600121F5604902F1611E
:100760007061200704D5304602220021FFF72AFFDE
:10077000306D384330653046FEBD0020FEBDF8B513
:100780000D460646124C206DC10704D0410804D026
:1007900044086400F7E7224610E05420FFF79EFD6E
:1007A000070010D07908206D490001221143084349
:1007B00054212065384600F0F2F83A462946304682
:1007C000FFF790FFF8BD0020F8BD00000280000098
:1007D00054170020FEB50446466900690F4F01908A
:1007E000E56800200090A80707D0204600F01EFB17
:1007F000304602F0FDFB002801DA3846FEBD280530
:1008000002D50198FFF79BFD4C21204600F0C7F868
:10081000206D4008400020650098FEBDFFFFFFFFEF
:1008200030B503461D78002D08D00A461478521CB6
:10083000002C03D0AC42F9D15B1CF3E7181A30BD91
:10084000034610B50B439B070FD1042A0DD308C8EC
:1008500010C9121FA342F8D018BA21BA884201D990
:10086000012010BD0020C04310BD002A03D0D307D3
:1008700003D0521C07E0002010BD03780C78401C08
:10088000491C1B1B07D103780C78401C491C1B1BFF
:1008900001D1921EF1D1184610BD000030B5441CA4
:1008A00003E00178401C00290DD08107F9D10B4BE2
:1008B000DD0104C8D11A91432940FAD0001B0A0671
:1008C00003D0C01E30BD001B30BD0A0401D0801E05
:1008D00030BD0902FCD0401E30BD00000101010105
:1008E000F8B5042A2CD3830712D00B78491C037067
:1008F000401C521E83070BD00B78491C0370401C10
:10090000521E830704D00B78491C0370401C521EF2
:100910008B079B0F05D0C91ADF002023DE1B08C9F7
:100920000AE0FFF7B9FCF8BD1D4608C9FD401C46AA
:10093000B4402C4310C0121F042AF5D2F308C91A80
:10094000521EF0D40B78491C0370401C521EEAD48E
:100950000B78491C0370401C012AE4D4097801700B
:10096000F8BD01E004C0091F0429FBD28B0701D5A3
:100970000280801CC90700D00270704700290BD08C
:10098000C30702D00270401C491E022904D383070A
:1009900002D50280801C891EE3E70022EEE70022D8
:1009A000DFE70000024670B50A4392072AD11E4DC8
:1009B000EE0104C808C9541B9443344017D0D0B288
:1009C000D9B2401A2106014310D190B299B2401A0F
:1009D000210401430AD110021902000A090A401A2F
:1009E0002102014302D1100E190E401A70BD9A4225
:1009F000DFD010BA19BA884201D9012070BD002099
:100A0000C04370BD02780B78401C491C002A09D0F5
:100A10009A4207D102780B78401C491C002A01D069
:100A20009A42EFD0D01A70BD0101010170477047A2
:100A30007047000070B5064C7C44064D7D4404E0D0
:100A40002046016808188047241DAC42F8D170BDCB
:100A5000785200007452000010B501469E24000236
:100A6000CA15A307002A02D01843002A04DBA21AE1
:100A7000002A0CDDD04010BD1206120E01D140003C
:100A80004008A21A03D4D04040420028F3DDFF22E0
:100A900048001206904201D9002010BDC817C0437B
:100AA000584010BD704700000048704750180020A3
:100AB000704770477047704738B504460A460020B3
:100AC0006946C046C046002805D002462046009927
:100AD00000F092FA012038BD10B5012000F0B6FAFE
:100AE00010BDF8B5C046C046054600200C46102093
:100AF000C0460646A819A0420DD9324669460020D4
:100B0000C046C046070001D100F0A0FA0098A042FC
:100B100000D00546C419FFF7C7FFF61D074605605C
:100B2000F008C0004619284600F008F8B44204D086
:100B300031463868A21B00F05FFAF8BD0021016061
:100B4000416080607047102070470000F8B505468E
:100B50000C46C8680521C90488430121890508435A
:100B6000E060800602D5204600F086F97149E06811
:100B70000140022903D0204600F028F9BCE00521FD
:100B8000012249030140D20391420FD1C00306D58F
:100B90006168E06A884200D80846606006E0206923
:100BA000E0626060606902F026FAA061A16800223C
:100BB000EEB200290EDAE06883050BD4C943A160C8
:100BC0000921226049030843E0606068411C6160BC
:100BD0000670ACE0E068012149030843E0600020B2
:100BE00020602069002831D1606902F017FA0125E0
:100BF00027462437ED02002816D0A0898005800FF3
:100C000008D0E069FFF76AFB0028206102D0E068A5
:100C1000284318E001202761E061E0680321090210
:100C20008843012189020DE0E069FFF757FB0028A6
:100C30002061EFD0E0682843E0608105890F03D18F
:100C4000FF2101310843E06020696060E2683A4FAB
:100C50002569D0051FD56168E06A884200D808463A
:100C6000411B05D02246284600F0BAF8002843D19F
:100C7000E068010204D5E56200206560A06053E0F1
:100C8000691CE1626160E169491E3843A160E0606E
:100C900030462E70F8BD100201D53A4009E0606878
:100CA000411C61600670E06838430A2EE06006D09F
:100CB0000022E16A6068814203D90B4602E001220A
:100CC000F7E70346A7895B1B7F0504D4E7699F42CA
:100CD00001DD002A1ED0814200D801460F1A0020F3
:100CE000E5626560002BA06009DD224619462846B2
:100CF00000F076F8002802D00020C043F8BD002F95
:100D000008D0A069E5626560C01BA061E0681021A1
:100D10000843E060E068000209D56168A069E56207
:100D2000491B40186560A0610120C043F8BD3046F2
:100D3000F8BD0000821000000000010010B501465F
:100D4000C268900703D0900607D5886A0AE0FFF7CB
:100D5000C1FA01210160881E10BD8B694868C01866
:100D60000B69C01A40310B7A002B02D0497A401A25
:100D700010BD1103FCD50028FADD401E10BD000097
:100D800070B5C468A50713D0650211D4D51FF93D0D
:100D90000AD0FF3D6D1E07D0FF3DFF3D022D07D15C
:100DA00001462431012305E0074E5D1EB54201D303
:100DB000012070BD0161C36141600F2109028C43B4
:100DC0001443C460002070BDFFFFFF00C168802293
:100DD000114392039143C16000218160016070471B
:100DE000F7B514460E463348D5685769054209D011
:100DF0003846A16902F060F9002811DB2D48C04394
:100E00000540E5602B4632463846009902F058F915
:100E10004200A1695208B21A89180028A16104D0C1
:100E20002046FFF7D3FF0020C043FEBD70B5044647
:100E30000569C06A6168884200D80846E1680522F1
:100E4000D2049143E160C90314D5A84209D02246D7
:100E5000411B2846FFF7C4FF002802D00020C043F2
:100E600070BDE56200206560A060E06801210904B2
:100E70008843E060002070BD10B50446C0682021A2
:100E80008843E060A16AA06988420ED02046FFF73F
:100E9000CDFFE06803210903884310210843E06087
:100EA000A06AA0612069E06260600349E0680840D0
:100EB000E06010BD10000200BFBFFFFF10B5434847
:100EC0005421FFF76CFD42485421FFF768FD41486B
:100ED0005421FFF764FD40483C493D4B404A0160C6
:100EE0003E4803603B4810605A1C0A65411C196566
:100EF000012101653C48354A3AA17844FFF7F2FBED
:100F0000002804D1384878440C3800F099F8384863
:100F10002F4A36A17844FFF7E5FB002804D1344876
:100F200078440C3800F08CF832482A4A2FA17844D3
:100F3000FFF7D8FB002804D12E4878440C3800F085
:100F40007FF840232148DC0000212246FFF718FFEC
:100F5000002804D0244878445C3800F071F81C481C
:100F6000224640230021FFF70BFF002804D0204831
:100F700078445C3800F064F81648224610230021BB
:100F8000FFF7FEFE002804D01A4878445C3800F0D1
:100F900057F810BD0F4870B5006D44080B48640049
:100FA000FFF718FC0A48FFF715FC0A48FFF712FC88
:100FB00009E0206D450820466D00FFF70BFC204638
:100FC000FFF7BDF92C46002CF3D170BD541700205B
:100FD000A8170020FC170020101200201412002077
:100FE0001812002072000000264800007700000060
:100FF00013480000EA47000010B50346406801E0CE
:1010000003464068002801D08842F9D31868C31805
:101010008B4206D0CB1CD808C000001D411A521AC2
:101020000146081D0A60FFF78AF910BD10B50020BF
:1010300000F018F8C046C046012001F0DBFF10BDEB
:1010400010B500F015F800F007F810BD10B500F06D
:1010500029F800F001F810BD10B5002801D001F00A
:10106000C9FF10BD10B500F05FF8FFF7F5FF10BD28
:1010700010B5014602A000F03DF8012010BD0000AF
:1010800053494752545245443A2052656469726547
:1010900063743A2063616E2774206F70656E3A2026
:1010A0000000000010B5012805D0002103A000F0C9
:1010B00021F8012010BD09A1F8E70000534947526B
:1010C000544D454D3A204F7574206F662068656118
:1010D00070206D656D6F7279000000003A204865E0
:1010E0006170206D656D6F727920636F72727570BB
:1010F0007465640070B505460C460A2000E06D1C5E
:1011000002F05CF8002D06D028780028F7D102E024
:10111000641C02F053F8002C02D020780028F7D18C
:101120000A2002F04BF870BD10B5002102A0FFF7B5
:10113000E1FF012010BD0000534947414252543A9B
:101140002041626E6F726D616C207465726D696EA4
:101150006174696F6E00000070B58D180478401CD2
:10116000A207920F01D10278401C231106D1037807
:10117000401C03E00678401C0E70491C521EF9D139
:10118000002B15D002780C2634408A1A401C0C2CF7
:1011900003D0A401121B9B1C08E004782402121B3C
:1011A000401CF8E714780C70491C521C5B1EF9D5E2
:1011B000A942D3D3002070BD83B01EB5044605A854
:1011C0000EC005AB0293054800900020044922465A
:1011D00002F034FE1EBC02BC03B00847A817002072
:1011E000FFFFFF7F7047000005491E4A8A421046F4
:1011F00000D104488A4200D11849FFF735B8C046EB
:1012000000800120442B0020002070470020704700
:101210000020704700207047002070470020704772
:101220000020704780B50B480B490C4A02604160B2
:101230000B480C4901600C480C490160FFF7FAFBB0
:1012400002F0FAFD02F0D5FD80BC01BC864602F03A
:10125000C9BCC04678190020001000000000002022
:10126000382B0020502B0020342B0020B0540100DC
:101270001F21014001228A40800F800016494358F7
:10128000934343507047C04610B571460446C807A3
:1012900004D10120214601F0BDFF68B12046FFF7CF
:1012A000E7FF10BC01BC8646704671467246734625
:1012B000F4468EF300887447164802F029F8C046B9
:1012C0001F21014001228A40800F800002494358BB
:1012D000134343507047C0460402004010B57146A6
:1012E0000446C80704D10120214601F093FF68B1EC
:1012F0002046FFF7E5FF10BC01BC864670467146EC
:1013000072467346F4468EF300887447014801F034
:10131000FFFFC046FF5A0000F0B587B00E460546F5
:10132000012001049B4C226C0A432264014605B152
:10133000042122680A43226005B1102000F022FB3C
:10134000394830183246394E3949884206D83A4829
:1013500000241146824205D3204604E03548054367
:1013600025645AE001200323B1421A46019300D3B9
:10137000019000950225B1420B460295294600D303
:1013800001468B400693E54340F200260394114644
:101390002B4A21292CD0881E042822D80494DE4808
:1013A0000591B0FBF1F040000023029CB34216D03F
:1013B000274647432149791891420DD8069EF11BD3
:1013C00000D2B91BA94240F2002605D259B19D1C9A
:1013D00004950D46059903915B1C641CE6E7049C8B
:1013E0000599491CD5E79C1C002505990391F8E750
:1013F000039D680240F20021401A019B9903009A64
:101400001143A21E0A430243DA480264581C68438F
:10141000C149B1FBF0F060434600042000F0B2FA8D
:10142000304607B0F0BDC04600CA91FE006CDC0239
:10143000000E27070EC2000000D8B805002847FAA2
:1014400000EA3206EE490A6802430A607047C04665
:10145000B0B529480268836BD90313D4990327498F
:1014600011D41C04A40F264D2C5D9D04ED0E6D1CA3
:101470006543DB059B0D234C5C436118B1FBF5F123
:10148000890000E00021204B196084680723234075
:10149000022B18D0012B0DD102231A4048F2000173
:1014A0001A4A0BD104681C430460126804689C4308
:1014B000046004E0990016A2515804E01268520634
:1014C00001D547F6005180690F220240501CB1FB44
:1014D000F0F07E49086016494118164AB1FBF2F156
:1014E000154A1160B0BC02BC8E4671467246734606
:1014F000F4468EF30088744708020040001BB700D2
:1015000064570000C0C62D002412002000110440C2
:10151000001BB7000080000000000000007D0000FC
:1015200000000000006CDC0200000000001BB7009F
:1015300020A1070040420F002012002080B500F0DB
:101540007FFCD748006880BC02BC8E46714672465C
:101550007346F4468EF300887447C046A848006876
:101560000121014049426C48084071467246734669
:10157000F4468EF300887447A1480068810348F25E
:1015800000000840714672467346F4468EF30088A8
:101590007447C04600020040810AC9B291B1820579
:1015A000D20E9140000C0C230340E248C058094B76
:1015B000C0580840D040714672467346F4468EF3D8
:1015C000008874470020714672467346F4468EF3D5
:1015D000008874472002004010B527494318D349BA
:1015E0000A68032B10D8980001A210188746C0463D
:1015F00000F006B800F017B800F018B800F019B8FD
:101600000969012008402AE0C94B984214D190078B
:10161000CA4821D40A6802231A430A6000680A688B
:101620009A430A6019E00869800717E00869C00555
:1016300014E00869800511E00201520F19D0C301BE
:10164000DB0E9A40800E0C240440BB480059081859
:1016500080681040D84002E000680006C00F10BC4F
:1016600002BC8E46714672467346F4468EF300887D
:1016700074470020F3E7C046F0FFFF7F80B500F01D
:10168000DFFB874800681249096807220A40D040FA
:1016900080BC02BC8E46714672467346F4468EF399
:1016A0000088744780B500F0CBFB7D48006808498E
:1016B00009684906490FC84080BC02BC8E46714685
:1016C00072467346F4468EF3008874471C1200205D
:1016D000340200400F480168C80313D488030E4841
:1016E00011D40A04920F0D4B9A5C8B04DB0E5B1C29
:1016F0005343C905890D0A4A4A431018B0FBF3F059
:10170000800000E00020714672467346F4468EF376
:101710000088744740020040001BB7006457000077
:10172000C0C62D001248016804229143016034486C
:10173000016880229143016030BF704780B5FFF798
:10174000F1FF80BC01BC8646704671467246734606
:10175000F4468EF3008874470548016804220A4362
:1017600002602748016880220A43026030BF704748
:1017700010ED00E00002004080B5FFF7EDFF80BCF7
:1017800001BC86467046714672467346F4468EF337
:1017900000887447F8B50446194D2F6D2868042653
:1017A00030432860102000F0EDF82869072101433C
:1017B0002961286A0F21884328621248844200D890
:1017C00004461148844200D30446286DC00707D15F
:1017D0000120C0042146FFF79FFD04462F6D04E061
:1017E00000202146FFF798FD04460220002100F06A
:1017F0000DF8F80602D42868B04328602046F8BDEA
:101800000002004000366E0100D8B805FEB5019117
:101810000290224FBC6DB868042100910843B86063
:101820001026304600F0AEF8B96907200143B961CF
:1018300039680906FCD439680325A9433960344066
:101840007968C907FCD1B96A0F229143019A114303
:10185000B962B969814302980143B96100F0F0FAB5
:1018600038680006FCD40E4800680E4941180E4A3C
:10187000914201D2012003E00C49884204D80220A1
:101880003968A943081838607868C007FCD11CB9CA
:10189000B86800998843B860FEBDC046F8010040B2
:1018A0001C120020FF9323FD00512502006CDC0276
:1018B00070B51E4B1C681E4DA8420FD1A0071F48D3
:1018C0002DD41A68022422431A6002688025AA4394
:1018D0000A4302601868A043186070BD840AE4B22D
:1018E00064B18505ED0EAC40050C0C262E40114D63
:1018F000AD595D19AE69A6431643AE610201520FA0
:1019000012D0C401E40EA240800E0C2404400A4808
:1019100000591818836893430B43836070BD0268B5
:1019200080239A430A43026070BDC046080200400B
:1019300001000040445700003457000000110440EB
:1019400070B5734614460D460646D80704D10120EB
:10195000314601F05FFC78B1304629462246FFF758
:10196000A7FF70BC01BC864670467146724673463E
:10197000F4468EF300887447014801F0C9FCC04664
:10198000FF5A0000B0B50146054A064B012000246D
:101990001D680D408D4202D0521CF9D32046B0BDC7
:1019A000FF60DBFF50020040FEE70000B0B50320FF
:1019B000400416490968814227D0F8495922162364
:1019C00088240A600B600C600D68002DF9D0104966
:1019D00011220A600F4A4A600022CA6001220A618D
:1019E0000B69002BFCD18B685B1C05D02223CB60DC
:1019F0000A610B69002BFCD188602120C8600A6154
:101A000008690028FCD1F1480260B0BD28F002400E
:101A100000C0004000082100F8B500920023032216
:101A20001D46202B0ED00E46EE40F60707D0009E36
:101A30009E4017469F400468BC43344304609B1C8F
:101A40006D1CEEE7F8BDF8B50092002303221D4699
:101A5000202B0ED00E46EE40F60707D0009E9E408B
:101A600017469F40046BBC43344304639B1C6D1CAE
:101A7000EEE7F8BD0248016804220A43026070479D
:101A80003C10044070B5654CA36801221340C3614B
:101A9000E16807250D40C560616809020D0F2C49FA
:101AA0000D6065682D032D0F4D606568ED04ED0F29
:101AB0008D6065682D052D0FCD606568AD06AD0F95
:101AC0000D6166680F252E404E612668B602B60F7E
:101AD0008E6126683603360FCE6126687604760F4F
:101AE0000E6226683605360F4E6226687606760F39
:101AF0008E6224682C40CC620D680A2465434E68CF
:101B0000751940F2D076AD1905608D686543CE68D1
:101B1000AD1945600D6965434E69AD1985608D69E4
:101B20006543CE69AD1905613BB9152D04D3022279
:101B30000262143D056100E002620A6A62434B6A78
:101B4000D21842618A6A6243C96A5118816170BDC4
:101B5000801900200649074A0A600B68012B03D050
:101B60000A600A68012AFCD108B100F005B8704784
:101B7000001004405713EBA570B500284CD0C36982
:101B800026498A681BB101231A438A6008E00123B1
:101B90009A438A60026A022A02D1026914320261FF
:101BA000C268CA60026840F2D073D31A0A22B3FB3B
:101BB000F2F4154665435B1B1B0424051C43436874
:101BC000B3FBF2F52E03264355435B1B1B02334345
:101BD0008468B4FBF2F516466E43A41B1C432D012A
:101BE00025438369446900694D60B0FBF2F52E0519
:101BF0005543401B00043043B4FBF2F52E0306436B
:101C00005543601B00023043B3FBF2F462439A1A5F
:101C1000024320011043086070BDC0460C10044010
:101C200041F62B40C0F20000004700F01DF9FEF71E
:101C3000EBFAFEE78CB06846001D2821FEF7AFFEE8
:101C40001C480B901C4806901C4805901C480490AA
:101C50001C4803901C4800901C48026B52B10023A2
:101C60001B49542B06D01446DC40E40716D1091D4D
:101C70005B1CF6E7284C206880B100221449012340
:101C8000542A0BD01D469540054202D1091D521C15
:101C9000F6E7096821A0FFF78FFA25600DA2D35C53
:101CA00003435A680968186880006B461B580FA0E8
:101CB00001F02EFB545B00006D5B00008F5B0000A9
:101CC000495B00003E5B0000985B000000F00240B2
:101CD000FC500000343C0000444C545C6400747CB4
:101CE000848C949CA4ACB4BCC40000002020257358
:101CF000283078253038782920416C61726D212098
:101D0000696C6C6567616C206163636573732062E5
:101D1000792025730A00000030F102400A25732063
:101D2000416C61726D212043617573656420627935
:101D300020756E70726976696C6567652061636392
:101D40006573730A0A00000010B50020C1430B48F8
:101D5000016041608160C1600161094A4261816145
:101D6000016213210122062906D313468B40446ADF
:101D70001C434462491EF6E710BDC04600F0024015
:101D8000FFFFFFFD4F48002101607046714672461B
:101D90007346F4468EF300887447C0460001004045
:101DA00010B5010E094A8B58FF242406A0430124D4
:101DB0008440A3438B5010BC01BC864670467146DC
:101DC00072467346F4468EF300887447080000405C
:101DD00010B571460446C80704D10020214601F021
:101DE00019FA68B120465DF067F910BC01BC86465F
:101DF0007046714672467346F4468EF30088744707
:101E0000014801F085FAC046FF5A000010B52D4880
:101E10005921162288230160026003600468002CA7
:101E2000F9D010BD80B5FFF7F1FF80BC01BC86463C
:101E30007046714672467346F4468EF300887447C6
:101E400010B55DF035F9054CA0605DF011F904495D
:101E50004118044AB1FBF2F103C410BD1C1200206A
:101E600020A1070040420F0010B500F0FCFFC000A9
:101E700013D414485921162288230160026003609C
:101E80000468002CF9D00021CA430F4B1A60243893
:101E9000016018690D49014319610D4C0D4820601E
:101EA00000F010FAA06808218843A0600A4860602A
:101EB00000F0FCF8FFF748FF10BC01BC8646FFF7B6
:101EC00075BDC04600010040F40100400040F0FF35
:101ED00008ED00E0000000000000FA0510B504461F
:101EE000174884420AD01848844209D017488442CF
:101EF00008D01748844219D1174804E00F4802E07F
:101F0000104800E013485DF0C7F802280AD140F2FB
:101F1000001004430C4884420AD110BC01BC864620
:101F20005DF0BEB880000DA1085810BD002010BDA6
:101F300010BC01BC86465DF0B7B8C0460200805EAA
:101F4000000005400300C05E00010540001105507F
:101F5000001005500500405F0400005F001BB70043
:101F600000800000000000000000000000000000F1
:101F7000007D000000000000001BB70010B500202D
:101F8000EFF3058171B1364B1A68511C0AD050022B
:101F9000324C205818600C205043434A13181058F4
:101FA0009860084610BC02BC8E4671467246734665
:101FB000F4468EF30088744710B5411EEFF3058296
:101FC0000020072910D87AB10C224A43F44B9A1802
:101FD00093684BB10832002010604802204A136811
:101FE000F04C23501160012010BC02BC8E4671469B
:101FF00072467346F4468EF300887447B0B5EFF32B
:10200000058000B30121E64AE64C002040F200239F
:10201000092908D0E51815605460906021600C32E1
:10202000491C2C46F4E7C14340F60062DD4B995051
:102030000B49086083F30B8883F30988022080F33F
:102040001488012000E00020B0BC02BC8E4671461E
:1020500072467346F4468EF300887447981A00203F
:102060004016002001460020EFF30582AAB1EFF3ED
:102070001482491E072910D802231A400DD00C22C1
:102080004A43C74989188A683AB14868083180F3D9
:102090000B88086880F309880120714672467346F0
:1020A000F4468EF300887447381A0020F0B589B0E2
:1020B00001239A0507927F48016811430160416836
:1020C0001943416081680424214381604168802272
:1020D000049211434160826848F200010A4348F2C9
:1020E000000682601904089182680A4382600268CF
:1020F00040F200410A430260026840F600010A43D0
:102100000260056844F200010D430560056835432F
:102110000560056841F200010D430560056840F265
:1021200000262E4306604568102106910D43456048
:10213000DF0505683D430197056005682543056097
:102140000468082105910C4304605C06051F2E6895
:1021500026432E60990602912C680C432C60DC0605
:102160002E6826432E605E072A6832432A609E0747
:102170002A6832432A60DA072968114329604168D6
:1021800044F2000211434160416848F200021143E9
:1021900041602968079A11432960296839432960F9
:1021A000DA0403920168114301601A0501681143C2
:1021B00001600168314301600168069E314301609E
:1021C000016820260E4306600168089E31430160C5
:1021D0005E040096016831430160416840F20046A8
:1021E00031434160416840F6000631434160016877
:1021F00040270F4307600168049E31430160990442
:1022000047680F4347600768029E374307600768C7
:10221000274307601C070768274307601C060768F9
:10222000274307604768174347605B0547681F43BC
:1022300047604768079E374347604768019E3743BA
:1022400047608768069E3743876007681F430760BB
:10225000476841F2000637434760476842F200068C
:102260003E4346602E68089F3E432E602E68009FC6
:102270003E432E602E680E432E602968039E314334
:102280002960296811432960296819432960416838
:1022900040F200120A43426041682143416000203D
:1022A000C043054908600549086005480599016073
:1022B00009B0F0BD84E300E02CF002402CF10240B4
:1022C0000CE100E010B51548032101601F22144BFA
:1022D0001C4694434460134A9A180A431C218A43BB
:1022E000826004210160104941601049816005212C
:1022F00001600F4A42600F4A8260062202600E4A65
:1023000042600E4A826007220260090741600C4960
:10231000816008380121016010BDC046D8ED00E0A1
:1023200000F00500FF0F000000000610E1FF0F1095
:10233000007E8000E37F800000800130E1FF0330F9
:10234000E1FFFF5FB0B501460020EFF30582EAB17F
:10235000EFF31482491E072918D802231A4015D01A
:102360000C224A430E4CA1188B687BB1EFF3098312
:102370004D68AB420AD3A258934207D808310B608C
:10238000084880F30B8880F309880120B0BC02BCA8
:102390008E46714672467346F4468EF30088744743
:1023A000381A0020981A0020F0B585B00091044634
:1023B000664801A96CC86CC1654E6648844229D044
:1023C000654884421DD0654884421ED064488442DA
:1023D0001DD0644884421CD06348844213D06348B3
:1023E000844217D0624884420DD0624884420CD0A7
:1023F000614884420BD0614884420AD060488442DC
:1024000038D1644E06E05F4E04E0614E02E05F4E5C
:1024100000E05D4E30465CF03FFE074630465CF023
:1024200037FE0646002020630325E560A0681249B8
:102430000140A160012F02D15CF03AFE02900098A9
:10244000C0B1B80001A90858711CB0FBF1F0009BA5
:1024500059084118B1FBF3F1891E0A0C07D0D900C5
:102460004018B0FBF3F00009801E606202E028070C
:102470000143616205B0F0BD0FFFF0FFF0B587B01A
:102480001C46029201910546304803A9CCC8CCC134
:102490002F4E3048854229D02F4885421DD02F48E5
:1024A00085421ED02E4885421DD02E4885421CD024
:1024B0002D48854213D02D48854217D02C4885429F
:1024C0000DD02C4885420CD02B4885420BD02B4890
:1024D00085420AD02A48854235D12E4E06E0294E43
:1024E00004E02B4E02E0294E00E0274E30465CF01F
:1024F000D3FD074630465CF0CBFD0646012F02D1E6
:102500005CF0D6FD04900C98019BC3B1B90003AAFE
:102510005158721CB1FBF2F259085118B1FBF3F19A
:10252000891E1E460B0C06D0F1005118B1FBF6F1C6
:102530000909891E02E00322120711436962029908
:102540000C430443EC6007B0F0BDC0465457000094
:10255000103D805700000740001007400020074052
:10256000003007400040074000500740000007507F
:10257000005007500020075000300750004007501F
:1025800000100750953DEC77143DCC77933CAC7729
:10259000123C8C77913DA05780B5022804DC01F0F5
:1025A0002FFA411E884180BD002080BDB0B50C4689
:1025B0004542FDF78FFE0560A000114900220A5038
:1025C000B0BDC04610B50D4800F03CFC0C480C30C6
:1025D0000021CC430321102904D002683AB1001D28
:1025E000491CF8E7FDF776FE1821016001E0046060
:1025F0000C46024800F026FC204610BD982A002018
:10260000441600201048406800F06EB90E4840683B
:1026100000F079B90C48406800F084B90A48406875
:1026200000F0C0B901460848406800F083B8C046D1
:102630000548406800F0A1B80348406800F01CB9A4
:102640000148406800F044B95818002010B532B174
:102650000C461D4802F002F92070012010BD002038
:1026600010BDC0461C20C04370471520C0437047B2
:1026700000207047F8B514460D460027124EBC42A4
:1026800005D0E95D304602F077F97F1CF7E7204678
:10269000F8BDC0460120704770B5044608480830B0
:1026A00020600848006840B91546074E304602F0E1
:1026B0005FF93046294602F097F8204670BDC046C3
:1026C0006C560000BC190020C4190020FDF737BE6D
:1026D00070B50C46054600F001FE5720285C2E46DA
:1026E000543618B9B07808B9307870B12846083037
:1026F00000F029FA0020708070700CB12846A047C5
:1027000070BC01BC864600F0F1BDA86CC068804773
:10271000F6E780B55622825C2AB1C26D006E904207
:1027200003D1012080BD002080BD00F02DFD411EA1
:10273000884180BD70B50D46044600F0CFFDA06C09
:10274000406880470146E5652066264654360120EC
:10275000B0705420205C40B1A06C016928468847C5
:10276000206E60660020307102E0204600F014F810
:1027700070BC01BC864600F0B9BD10B5044600F03F
:10278000ADFD572001212154A06C4069804710BC49
:1027900001BC864600F0AABD70B588B0044658203A
:1027A000205C2546553508B1A26E0AE0606EA26E27
:1027B000081A1040E36C984201D2012302E0012084
:1027C000E8700023E06D461A1640216DC3B12878E9
:1027D00090BB0023069326480590264807908E421A
:1027E00000D30E460494E06E7043021D083404A921
:1027F000204600F0D8F90798E0B1816804A818E0F5
:102800008E421BD2304600230293194A0192194A84
:102810000392884200D308460094E16E41430A1DAA
:1028200008346946204600F0BEF9039810B181686B
:10283000684688470120287008B070BDA16C0969FE
:102840008847A06C4068804760660021E970E16DB0
:10285000091AA06E0840B04206D9A06C406908B0C1
:1028600070BC02BC8E460047216D8842CBD3E3E7A3
:10287000912800001057000010B5044600F02EFD0E
:10288000A06CC068804710BC01BC864600F02EBD1D
:10289000B0B5044600F022FD552000212154A06C63
:1028A000406880470546E26D206E904203D029467D
:1028B00000F06AFC18B1A06C4069804703E0204634
:1028C0002946FFF769FFB0BC01BC864600F00EBD8B
:1028D00010B5044600F002FDA06C8068804710BC73
:1028E00001BC864600F002BD10B5044600F0F6FCBF
:1028F000204600F02FF8A06C8069804710BC01BC16
:10290000864600F0F3BC10B5044600F0E7FC204614
:1029100000F020F8A06C0068804710BC01BC86461F
:1029200000F0E4BCB0B5054600F0D8FCA86C4068E7
:10293000804704465420285C38B928462146FFF7D2
:10294000E8FE10B1A86C4069804700F0CFFC20463B
:10295000B0BD0000F8B50446083000F0F4F8204699
:1029600055300121002646525522A654E6652666BA
:102970006666C170A06CC06980470546F64347682B
:10298000304631463A46FDF700FD1F2F00D8C643BA
:10299000A666286802494118B1FBF0F0E066F8BD70
:1029A0003F420F0010B5044600F098FCA06CC069CF
:1029B0008047044600F09AFC204610BDF8B51F463B
:1029C00016460D460446083000F052F92868542196
:1029D000002262540699491C7A1CA064E2642165B5
:1029E00000F07CFC2660686860602046FFF7B2FF5C
:1029F00000F07CFC2046F8BD1520C043704711B99B
:102A00001820C0437047002070471520C04370470E
:102A10000020704701680B690021012218477047A8
:102A200001680B6900210A4618471520C04370470A
:102A30007047E0B5014680690091083101F0E2FF7E
:102A40008CBD01688968084701468069083102F039
:102A500051B8000010B504460020A060E06020617D
:102A600060610C480830206000F022FEA06102493D
:102A700002F05BF8204610BD432A0000FEDE000095
:102A800010B504460348083020602046FFF7DCFFFD
:102A9000204610BDBC56000070B50F2801DD002493
:102AA00019E00546800016490C58022D13DC621C03
:102AB00011D10E18284600F029F8044650B92846CE
:102AC00000F026F8044628B90E4C201DD0E88F0FE0
:102AD000C00702D03460204670BD0A4C201D00F0B3
:102AE000C4F90028F6D0E1204202064C06492046EF
:102AF000FFF7D2FD2079FC210140481C2071E9E755
:102B00004416002050190020F8560000002070479D
:102B10000020704770B51C461646054600F0DEFBE7
:102B20002846FFF791FF2E626C62A86901F0D1FF81
:102B300082194C4128462346FFF77BFF70BC01BC3D
:102B4000864600F0D3BB10B5044600F0C7FB204614
:102B5000FFF77AFF606B50B13821615C19B101F069
:102B60003DFF606B18B181682046283088470020FF
:102B7000606310BC01BC864600F0B8BB10B50446CB
:102B80008068E168226A636A12184B412046FFF7A9
:102B900050FF606B30B128340168204610BC04BC83
:102BA0009646084710BDF8B5009315460F460446F3
:102BB00000F094FB26462836606B20B93820205C54
:102BC00008B101F0FBFE3046394600F074F82046AB
:102BD0002A46009BFFF79EFFF8BC01BC864600F02A
:102BE00085BB000080B5FFF735FF38210122425434
:102BF00000210162416241630F490831016080BDDB
:102C000080B500F005F880BC02BC8E4600F029B902
:102C100010B504460848083020602046FFF793FFAF
:102C2000606B18B18168204628308847204610BC68
:102C300002BC8E46FFF724BFD056000010B51CC959
:102C40001CC010BD7047BFB50446014628316D4613
:102C5000284600F021F82046FFF775FF0398016829
:102C600028468847039810B1816868468847BFBDE9
:102C700080B5FFF7B7FF02490831016080BDC0464B
:102C8000E456000080B5FFF7C3FF80BC02BC8E464F
:102C900000F0E7B800F0E1B810B50446002020606D
:102CA0006060A060E060C868E06010B142682046E3
:102CB0009047204610BDB0B5044688420CD00D4662
:102CC000E06810B1816820468847E868E06018B184
:102CD00042682046294690472046B0BD007B704799
:102CE000F8B50E460446184D2846083000F0AAF8FC
:102CF0002D6875B1AF6857B13846FDF7CFFDB042CA
:102D000005D1384621463246FDF79AFD78B12D1D92
:102D1000EEE7072E05D10DA007222146FDF790FD15
:102D200050B10948083000F08DF800250AE0064847
:102D3000083000F087F805E0034C2046083000F02A
:102D400081F865682846F8BDD01800206465666182
:102D5000756C740010B5044600F007F818B160688F
:102D600000B1001F10BD002010BD80B5406828B123
:102D7000FFF7B4FF411E4842484180BD002080BD9E
:102D800010B5044600F00BF818B1606800B1001FE0
:102D900010BD002010BD4068411E8841704780B5BD
:102DA000406828B1FFF79AFF01464042484180BD84
:102DB000002080BD0068704770B50E4604460025AF
:102DC000056045600AA13046FDF72AFD301841191B
:102DD0002160425D2AB12F2A01D06D1CF7E7491C02
:102DE00021602946FFF77CFF6060204670BDC04629
:102DF0002F0000000346481012681018C90701D0C0
:102E00000168CB5818470A46036841681846FFF71F
:102E1000F1BF0000B0B50D46C80701D1002405E0A0
:102E2000074801F0B9FD0446401E8441E80604D578
:102E3000034801F0B9FD00B110342046B0BDC046D2
:102E4000C41900200146006808B9086800B170473D
:102E5000081D08607047012070470146001DFFF7FC
:102E6000D2BFFDF76CBA7046F047027803231A40D0
:102E70000021012A07D002781340012B03D0022140
:102E80000A430270012108467047000001A000F0CB
:102E90009DF9C04650757265207669727475616CD3
:102EA0002066756E6374696F6E2063616C6C656417
:102EB0002100000000F01AB8F8B51E4614460F466F
:102EC000054600F04FFC781C0ED02846314600F035
:102ED000B9FC0121284600F0EFFB28462146F8BC4A
:102EE00004BC964600F052BCF8BD000006480749F5
:102EF00088420A4600D1064A884200D10548C01DD2
:102F0000072188437047C046502B002000800120D5
:102F100000000020442B002000F086BFFFB50023F6
:102F2000002858D0002956D044692546463D882DB2
:102F300051D803680193071DA8CF284E7743009707
:102F400040F610676F433C255D43039202911AB926
:102F5000C82C01D1002303E00326264073427341AD
:102F600030265E431E4B9B1900698000185801995A
:102F70004B19DB1900995A1810181A4A8018CE2CD0
:102F80000CD100230399029E11B9174A904222D80E
:102F9000012907D1154A90421DD803E0472C039917
:102FA000029E16DB1122D3435D1CC82C00DC2B468D
:102FB00001B12B4640F26D126243641E042594FB5E
:102FC000F5F41219D21846F2CE33D21A03495143FE
:102FD000401830600123184604B0F0BD8051010054
:102FE000EC59000080AEFEFF7F223100FFD02F00A1
:102FF00000F036B9FEE710B5FFF74EFD28B10168C5
:10300000896A8847002802D410BD092400E04442A0
:10301000FDF760F904600020C04310BD00F0F0BC73
:10302000B0B50D4604462149FDF7BCFCB8B12049B6
:103030002046FDF7B7FCA0B11E492046FDF7B2FCC3
:1030400088B12078402814D16078A1780902081846
:10305000E17822791202511809040C1807E00024C3
:1030600002E0012400E002242046FFF715FD20467F
:10307000B0BDA80706D4680706D42807C1170920E1
:10308000084002E0022000E001202907890F02D059
:1030900040F200214018290240F200420A40811803
:1030A0002046B0BC04BC964601F090B924570000FD
:1030B0002B5700001C570000002200F07BBD0000D1
:1030C000F0B585B0002A36D40E4604460392FFF7C9
:1030D00063FAB8B32A480494001918300027F9435A
:1030E000019102903D46039AAA422ED004780D2CFD
:1030F0001ED0705D0A281BD1BD420DDDF11901986B
:1031000078432A18049801F07BFF002817D4C719C8
:10311000AF422EDB029804700122049819A101F03D
:103120006FFF00280BD424D00D2002990870039A59
:1031300070196D1CD8E7FDF7CDF81621016000204D
:10314000C0431BE00027039A00E0049C974211DA79
:10315000F119D21B2546204601F052FF0028EED47B
:10316000C719012F05DB06484019B919491E09780E
:103170000176039A002F00DBD71B384605B0F0BD5F
:10318000501900200D00000010B5034682420AD9F4
:10319000012000249142024600D22246994200D3E7
:1031A0002046104310BD012000249142024600D267
:1031B0002246994200D32046104010BDE0B501A937
:1031C00008700120024601F01BFF8CBDFDF72EFFA9
:1031D00080B501218843F0B444464D4656465F46CB
:1031E000F0B40121884301460246034604460546E1
:1031F000064607468046814682468346844680F3DB
:1032000000888447F0BCA046A946B246BB46F0BC45
:1032100080BD0000B0B50246002072B1012A1BD16A
:103220000E4B1A46083240F21024ACB15D688D4254
:103230000DD00C3C0C320C33F7E7084A40F2102357
:1032400053B114688C4204D00C3B0C32F8E7106880
:1032500000E09068411E8841B0BDC046DC570000C8
:1032600010B50446FFF718FCA100094A0024545089
:1032700030B1016849698847002807D5444200E019
:103280000924FDF727F804600020C443204610BD40
:10329000441600200120EFF31081014048424841CC
:1032A0007047D0E85F2F521AC0E8532F002BF8D197
:1032B00090B2704701460122D1E84F0FC1E8432F79
:1032C000002BF9D110407047D0E85F2F5218C0E8AA
:1032D000532F002BF8D190B27047000080B500F05A
:1032E000D5FA07480168491C016080BD044801689F
:1032F00011B1491E016000D0704700F0D5BAC04638
:10330000A42A0020EFF30580411E88417047000089
:1033100001200749D1E84F3FC1E8440F180604D106
:1033200072460448002100F0C9FA00F065FDC0466D
:10333000312B00200001FF8004460848FDF729F9E1
:103340000748FDF726F9012000F072F9022000F08D
:103350006FF904B9FEE700F0DDFCC046A8170020B5
:10336000FC170020FEB5002303930292009115493B
:1033700009680191806801694269891804910068AF
:10338000801805900120A24901436846884706B08D
:1033900080BDC046FEB50023039302920091094907
:1033A000096801918068016942698918049140683F
:1033B000801805900120964901436846884706B069
:1033C00080BDC0461C120020B0B503460024E04377
:1033D0008A420ED35D686B688B420AD8AD68ED18DF
:1033E0008D4206D98A4203D0934202D8954200D931
:1033F0002046B0BDF0B587B072460C460546D007F2
:1034000008D1284621462246FFF7DEFF10B10020F2
:10341000C74324E0FFF762FF0126284621463246D3
:10342000FFF7A0FF28460095002504950395029517
:103430000194806801694269891805918068801843
:1034400006907349314301A88847074600982146F2
:103450003246FFF79FFF07B1EF43FFF747FF3846BC
:1034600007B0F0BC02BC8E46714672467346F44605
:103470008EF300887447C04600207146724673463A
:10348000F4468EF300887447FF20714672467346F7
:10349000F4468EF3008874477146C90700D1001DB9
:1034A00000680068714672467346F4468EF30088E1
:1034B000744770B57246D20718D142685068936855
:1034C0001B180020C0438B4229D9D3681269D4004D
:1034D0001B191D1DC3008400521E20D4EE1865194F
:1034E000083D2D688D423546F6D817E002685068D1
:1034F00093681B180020C0438B4210D9D36812690F
:10350000D4001B191D1DC3008400521E07D4EE18E1
:103510006519083D2D688D423546F6D8306870BC77
:1035200002BC8E46714672467346F4468EF300889E
:1035300074477146C90700D1001D00688068714654
:1035400072467346F4468EF3008874477146C90785
:1035500000D1001D00684068714672467346F4460B
:103560008EF30088744780B500F054F8002080BCCA
:1035700002BC8E46714672467346F4468EF300884E
:1035800074470000F0B587B076461F4600920C469F
:103590000546F00709D1E019421E28462146FFF7EB
:1035A00013FF10B10020C74326E0FFF797FE022665
:1035B000284621463246FFF7D5FE00980390029731
:1035C0000194002000900490A86841690269521893
:1035D0000592C0684018069001200D49014301A8DA
:1035E00088470746284621463246FFF7D3FE0FB1EB
:1035F0000098C743FFF77AFE384607B0F0BC02BC1C
:103600008E46714672467346F4468EF300887447C0
:103610008C1600200349044A044B02604160836019
:103620007047C0469457000080570000685700005C
:1036300010B5FFF731FA30B1016889698847002871
:1036400003D4002010BD092400E04442FCF742FEF0
:1036500004600020C04310BD014800F003B8C0461C
:10366000A8570000BCB50446FFF738FE084D28787F
:1036700050B90423009328460830064A2146FFF734
:103680009DF9012129706860FFF730FE6868BCBDB4
:10369000581800204856000010B5024600200B685C
:1036A0005C1C04D0934201D01C31F8E7084610BDE1
:1036B00000487047605C0000F8B50A4604460068A0
:1036C000411C20D02272617A06293DD8830840F23D
:1036D000C0351D40524BED18C7B2880001A3181821
:1036E0008746C04600F010B800F019B800F021B8C5
:1036F00000F006B800F004B800F026B800F02AB8D0
:1037000002BB03211FE0F8BD0126BE40002228466F
:103710003146FEF798F9607A012802D007E00126C9
:10372000BE40022228463146FEF78DF9607A022813
:1037300005D101221146B9402846FEF784F9207AC6
:103740000028DED0042161722068F8BC04BC9646D3
:1037500000F0A8BE0AB10621F6E7204600F084F882
:10376000617AF1E710B504460160481C06D00846AE
:1037700000F05AF8606040F20020208110BD002265
:10378000C046C04613460022FFF796BBB0B50446BC
:103790000368581C1BD006292DD80022880001A5DB
:1037A0002818874600F017B800F012B800F012B8D9
:1037B00000F006B800F004B800F01DB800F022B820
:1037C000032929D140F200302081032114E0B0BD4B
:1037D000022200E00122980840F2C0310140104866
:1037E0000818DBB201219940FEF72DF9207A08B1C3
:1037F000042100E0032161722068B0BC04BC96463D
:1038000000F050BE06216172207A0028F4D12046D3
:1038100000F02AF8617AEFE7024820810421EBE703
:10382000004000500104000010B50446401C07D0C1
:103830000021204600F016FEE1B20120884010BDB4
:10384000002010BD10B54A1E914140F2C03240F236
:10385000C0333C33006884001C40800810400A4A92
:103860008018015110BDC04640F2C03140F2C03254
:103870003C32006883001340800808400249401829
:103880000121C1507047C04600480050EFF310803E
:10389000EFF3108172B608490A781AB901220A704A
:1038A00082434A707047C046034800210170407847
:1038B00000B162B67047C0465418002070B58EB093
:1038C00014460D46064601A8001D3021FDF767F895
:1038D0000395002E00DB154E01961548301803287D
:1038E00002D8686BEC6B00E001A808900294FFF727
:1038F000F5FC104D2868411C296028B9284608307D
:1039000001A93422FCF7ECFF2C463C3401A93422F7
:103910002046FCF7E5FF6968204609B1884701E0C9
:1039200000F066FAFFF7E2FC0EB070BD0101FF8007
:10393000C3FE007FE0180020FEB504464068382131
:10394000415C11B93830807800B1FEBD2068006854
:1039500080472068C0698047056805B9274D1F2644
:103960000127310606D0F1B23A468A40954201D08D
:10397000761EF6E7406802906068002100910160C1
:103980004160206840688047029A019464683A2147
:10399000009B63543B2166541E46A362E36223638B
:1039A00063632062101F1C2800D92022F0430146C7
:1039B0000292FCF7EAFCC1430298021F07209040E4
:1039C0002787A560E16020610C4A31463346FCF749
:1039D000FDFC28187141401EB1412A463346FCF7D0
:1039E0000DFDA061E161019C204601F0C1F9204676
:1039F000FEBC02BC8E4600F08FBEC04640420F00A7
:103A000010B5FFF749F828B10168C969884700284F
:103A100002D410BD092400E04442FCF75BFC0460C2
:103A2000002010BD014803210160704708010540D6
:103A3000394802210160BFF34F8FBFF36F8F70478A
:103A400002480221016050480160704704E200E032
:103A500080B5314802210160BFF34F8FBFF36F8FF4
:103A60002E485BF02DFB3A480021018080BDC04606
:103A700000487047D4570000F8B535480188264AF9
:103A800031B102201060BFF34F8FBFF36F8FF8BDCD
:103A900001260680214C0022204641F200015BF005
:103AA0001FFB20465BF010FB1D485BF021FB1D4C0B
:103AB0002046FEF713FA0321C906C00B401E084337
:103AC00020605A25184F2846B8472E48606028467F
:103AD000B8478E480068C421144A425002200E495B
:103AE0000860BFF34F8FBFF36F8F700721680143EA
:103AF00021602846B847F005216801432160284627
:103B0000B847B0072168014321602846B8472068BC
:103B10008001FCD5F8BDC04684E100E00300C05E32
:103B2000030000040001054045430000554B000020
:103B30000148006800F02AB88416002080B50448C7
:103B4000008808B9FFF798FF0248006880BDC046AA
:103B50003E2B00200C010540084903224A60084B17
:103B600002221A60022800D81046064B984200D361
:103B700018460860044802607047C04604010540CA
:103B800084E200E0FFFFFF0004E100E0B0B504467E
:103B9000FFF7A4FB064D287808B9FFF75DFD6868BC
:103BA0002146FEF795FDB0BC01BC8646FFF79EBBE3
:103BB00058180020B0B514460D46FEF76DFF38B119
:103BC00001680B69294622469847002802D4B0BDF7
:103BD000092400E04442FCF77DFB04600020C04360
:103BE000B0BD000019A01A4EB0471A4C2046B0478D
:103BF0001948B0472046B04703256A0417480024F7
:103C0000174F2146B84701204107EA0315A0B847DE
:103C10001EA0284941F20002B847274D286880F3CA
:103C2000888826A0B0472BA02946B8476868FFF7C8
:103C3000CFFA3F2005062D4E284601F0B3F9304655
:103C40002146FDF7B9FA641CF6E7C0460D000000F6
:103C5000B90600009D5A0000CE5A0000775A0000B5
:103C6000B91100005365637572652052414D207390
:103C7000746172742F73697A653A20307825303810
:103C8000782F3078253038780A0000004E534320D2
:103C9000726567696F6E2073746172742F73697ACD
:103CA000653A203078253038782F307825303878CC
:103CB0000A00000000F0050000000610536563755F
:103CC0007265206D61696E20746872656164200D93
:103CD00000000000545A5F53544152545F4E533A0F
:103CE000203078253038780D0A0000005C5A00003A
:103CF00010B5064801688222054B1AB110C910C3DD
:103D0000521EFAE70249016010BDC04608ED00E00E
:103D10000010002088B0FFF7E1FA40F2C031BE3950
:103D200005A8FFF72CFD00270421019140F2C031C6
:103D30003C310391012102910497042F20D1019F6E
:103D4000F7B305988100039C2140800840F2C032FF
:103D500010401E4E3043029A42501B4D284601F03F
:103D600040F9059881002140800840F2C03210409F
:103D70003043049A4250284601F033F97F1EDFE7B2
:103D800005988100039E3140800840F2C032104007
:103D90000E4A15461043029A42500A4C204601F042
:103DA00020F9059881003140800840F2C03210406F
:103DB000284300224250204601F013F97F1CBCE743
:103DC000049FBAE7F0490200801A0600004800503C
:103DD0000121064CD4E84F5FC4E8461F290603D1F1
:103DE00011467246FFF76AFD00F006F8312B0020FD
:103DF00070470020704700000A48FFF75BFA28B1BF
:103E0000FFF76CFABFF34F8F20BFFDE7FFF77AFA99
:103E100028B9FFF73FFA10B10120FFF78DFAFFF73D
:103E200079FFC046302B002080B5FFF761FF80BCD2
:103E300001BC864600F03EBA70470000F0B58FB076
:103E4000064600200E90002900D56AE11546002A9A
:103E500000D166E105910C9309B90D9101E0481E6E
:103E60000D90149C681C099000200B9607940895EF
:103E70002B5C252B0BD0002B00D147E100940EAA20
:103E8000074630460D9900F0F7F93846E7E0074657
:103E9000401C295C0A46203A102A52D8012393403C
:103EA000A14A1342099B01D0B81C295C2A2904D1DC
:103EB000401C295C0C9B1B1D08E00A46303A092A6D
:103EC00003D8421C195C1046F7E70C9B2E2907D13A
:103ED000411949782A2905D1801C295C40CB0EE084
:103EE000924E0CE0401C0026295C0A46303A092A12
:103EF00005D80A2272435618303E401CF4E74C297C
:103F00000FD07A290FD06A290FD06C290FD07429CD
:103F100013D0682913D141194978682913D0112485
:103F200014E0612412E0412410E031240EE0411934
:103F300049786C2909D0212408E0512406E00024A6
:103F400004E0099BB2E7722400E0822403222240AD
:103F500011186D5C692D0A9101D0642D0AD1822C53
:103F600045D1DB1D072083431A6818465F68083077
:103F70000C9055E00C932846703808283FD88200F2
:103F800001A39A189746C04600F010B800F076B822
:103F900000F074B800F080B800F070B800F033B8EA
:103FA00000F06CB800F06AB800F02DB80C9802C8A8
:103FB00006910C90079C00940EAF30230B9E304668
:103FC0000D9D29463A4600F057F900947823304673
:103FD00029463A4600F050F90120069AD11700927E
:103FE000019102940390304629463A468BE004CB77
:103FF000112C0C9312D0722C11D152B20FE0632D00
:104000005CD0582D3AD1822C2BD10C9BDB1D072084
:10401000834305CB00330B9E0D9963E012B2D71793
:10402000079C002F03D438460B9E0D9D0DE0009495
:1040300006920EAA2D230B9E30460D9D294600F0B8
:104040001BF9069A00205242B84100920190029456
:104050000EAA3046294600F0C7F8089D0A98401C71
:1040600006E70C9B01CB0022112C0D9936D0512C68
:1040700036D0722C0B9E35D1C0B233E0079C009431
:104080000EAA25230B9E30460D9900F0F5F8252D3C
:104090000A9821D038461FE00C9820C80C90079C45
:1040A00056B12B7843B100940EAA0B980D9900F0ED
:1040B000E3F8761E6D1CF3E70B9ECEE70C9F3B7872
:1040C000079C00940D460EAA0B9E30460D9900F0F9
:1040D000D3F828463F1D0C97089DC0E780B200E04A
:1040E000C2170B9E079C0C93752D04D100AB15C312
:1040F0000EAA3046AFE700AB15C3583D6842684191
:1041000003900EAA304600F013F8A6E70E9846B1C9
:10411000059931B10D9A0021904201D9B15400E0C6
:1041200031540FB0F0BDC04609280100FFFFFF7FEA
:10413000F0B589B0059202910190119808B926A0B6
:1041400000E021A008900F9804900E98039000249E
:1041500007253826109F002D34D403980499324641
:10416000FCF723F9E10709D0069607950F240440D0
:104170000006000F029E019D089A0EE0089A1DB1EC
:10418000C1B209B900241AE0069607950F2404402D
:104190000006000F029E019D07D00097135C284681
:1041A0003146059A00F068F8089A0097135D284692
:1041B0003146059A00F060F80124079D069E083EEE
:1041C0006D1EC8E709B0F0BD3031323334353637B3
:1041D000383941424344454630313233343536373D
:1041E0003839616263646566F0B58DB016460F4676
:1041F000139C129A11462143149934D001910290D4
:1042000007A818211546FCF7CAFB28460025049686
:1042100003970146214319D00A260027214605901D
:1042200032463B46FCF7EAF8044606913246049EC5
:104230003B46039FFCF7CAF80599081A3021014351
:1042400007A841556D1C2046069CE2E707A8441EBE
:104250007DB1635D0198009002983946324600F0C6
:104260000BF86D1EF4E7009130233946324600F01A
:1042700003F80DB0F0BD0000B0B5144615680C4A47
:10428000954214D8049A42B11846114600F0CFFE68
:10429000401C09D02068401C08E018B18D4201D2B2
:1042A00043552568681C01E00020C0432060B0BD74
:1042B000FEFFFF7FF8B51748017851BB0124047059
:1042C000414F592016218822386039603A603B6896
:1042D000002BF9D00420104DA8472046A8470820FD
:1042E0000090A84702263046A847A004A8471020FF
:1042F0000A4DA8472046A8470098A8473046A84737
:104300004020A8470648FDF745FAFDF799FD002033
:104310003860F8BD3C2B00204514000085190000D2
:1043200000D8B80506480021017000F0A9BDC046BC
:1043300080B500F0B9FD02480121017080BDC04682
:10434000A22A0020F8B504460020C54300F0A8FDCD
:1043500040688540EE4300F0FFFD0546274600F02B
:10436000FBFD411B3140621A00D317468C420546C3
:104370003C46F4D2F8BD000080B5FDF747FDFDF7DF
:10438000D1F911480021016080BC01BC864670460D
:10439000714672467346F4468EF300887447C046F1
:1043A00080B5FDF733FDFDF7D7F90748002101601F
:1043B00080BC01BC86467046714672467346F44620
:1043C0008EF300887447C04600010040F0B585B008
:1043D0000D460646FEF7F6F8044600283BD40027B3
:1043E000049702A83146FEF7E7FCFEF7D4FC08B3B9
:1043F00002A8FEF7D4FC20B102A8FEF7C1FC04908D
:1044000022E002A8FEF7A6FCA0B1064602A8FEF72D
:10441000D1FC024630688068019004A930462B46E2
:10442000019DA84778B12146FEF7C0F81220C44389
:10443000123410E01220C54328462146FEF7B6F894
:1044400012352C4607E00498A100044A5050044855
:10445000001907760772204605B0F0BD441600200B
:10446000501900205AF054BEB0B542087C231340C6
:10447000420978241440E218094BD4584007C00E72
:104480000F258540AC430C43D450B0BC01BC8646DC
:104490007046714672467346F4468EF30088744740
:1044A00030000040C91ECAB2032A0AD8C3B2012193
:1044B0009940800840F2C033034002481818FDF7C5
:1044C000ABBA70470040005010B502460020C04310
:1044D0000B685C1C04D0934201D00C31F8E74868AB
:1044E00010BD0000E0B5024688420AD0501C07D03B
:1044F000481C06D0002100911C480B46FFF768FCC1
:104500000A4610468CBDC046BCB505460024401C7A
:1045100005D02846FFF7D8FF411C02D0BCBDE043C0
:10452000BCBD0094114821462A462346FFF750FCA3
:104530001CB50446401C11D00868421C0FD0A04294
:1045400001D00C31F8E789682046FFF78BFF002186
:1045500020461CBC04BC9646FFF7A4BF1CBD00212E
:104560000091024822460B46FFF732FC30010180E1
:1045700080B51E485AF0A4FD80BC01BC864670463A
:10458000714672467346F4468EF300887447C046FF
:1045900010B500F01BF800B110BD00242046FDF757
:1045A000D9FA2046214610BC04BC964600F088B8D3
:1045B00080B5FFF7EDFF80BC01BC864670467146B2
:1045C00072467346F4468EF30088744710B5074C64
:1045D0002046FCF775FE002120460A46FDF768F9E3
:1045E000034801680120084010BDC046010000409A
:1045F0000010044080B5FFF7E9FF80BC02BC8E4686
:10460000714672467346F4468EF300887447000084
:1046100070B596B0FFF7DAFF08B9FFF7B9FF344E6F
:104620003078B8B9012030706421109100240F94C3
:10463000062111910E900D940C940B94311D0BA832
:104640002246FEF76BFC254670B3FDF713FA2948A6
:104650000068B06002A8FDF715FA04980E9005985E
:10466000119006980D9040F26C71029A511A1091B7
:104670000399491E0F91099921B90A99022901D17B
:104680000C300D9007980C9008980B900BA801A97E
:1046900000252A46FEF742FC28B17068B168019AED
:1046A00051180C1A00E02C462046294616B070BC62
:1046B00004BC964672467346F4468EF300887447EF
:1046C000B0B50446FFF782FF08B9FFF761FF084D58
:1046D000AC60FDF7CFF9A868064908600648FDF709
:1046E0004BFA5A20B0BC02BC8E4600F07ABCC046E1
:1046F000B0190020401004405051000080B5FFF771
:10470000DFFF80BC01BC8646704671467246734628
:10471000F4468EF300887447F8B5044646683A209C
:10472000305C18B930463930007800B1F8BD204609
:1047300000F01EFB67687968E1B103C93B6B7A6BD7
:104740001D1A15468D4144D2C01A91413D69BA697E
:10475000FB69121A8B4127D3BA68214B9A4220D0A9
:104760003B23FB5C8BB11A46FBF70FFE00231D4A6F
:10477000801812E0306AF168326910180840216828
:104780000969F8BC04BC9646084700230093009BC7
:10479000FBF71CFE134A8018009B5941104AFBF797
:1047A0002DFE854200D30546386A4019FD68054054
:1047B0002068016928468847206840688047316A38
:1047C0008D4202D9A84202D303E0A842AED3884268
:1047D000ACD220684069F8BC02BC8E460047C04697
:1047E00040420F003F420F000368734A1A4093692A
:1047F000DB00FCD541611046FDF7D6BDBCB50446D3
:1048000005686D4828408569ED00FCD518340EC454
:10481000052903D0062903D1012406E0002404E081
:10482000072901D0032400E00224022111430329B7
:1048300001D1082506E0911EFD22114201D000257C
:1048400000E01825991E4A424A419100009100213A
:1048500022462B46FDF712FEBCBDC046014600684D
:10486000554A024090694004FCD410683423CB5C64
:1048700011210B4202D053680B4353607047C0466E
:10488000FEB5174600920D460446FFF713FD334967
:104890002846FFF739FE064631493846FFF734FE11
:1048A00001463046FFF71EFE20602E49FEF7F4FE5B
:1048B0000190806902900026F74328466560009DBC
:1048C000A560E76027612549FFF732FE28462449A5
:1048D000FFF72EFE029B18682546383500BB00976F
:1048E000019F3A1D07CA5AF0FBFB78685AF0ECFBAF
:1048F00038695AF0FDFB20681B49884202D042F219
:10490000805101E0E12041022046FFF76DFF0821C0
:10491000002201232046FFF771FF029B1868009FC9
:10492000411C19601869266360622E80E763276462
:1049300066640E4802460832944202D101210160A9
:10494000196851B10749019A511A1C2291FBF2F1E1
:1049500001228A40416811434160FEBDD8530000E6
:10496000745100009C5B000000000750BC1900203F
:10497000CA684968FFF784BF03680F4A1A40936901
:104980001B02FCD411603421405C800703D55068C1
:1049900002210143516070470068EB49014088697A
:1049A000810B0120884370470068E749014088690E
:1049B000C10D012088437047E0FF0FFF1CB5104C6C
:1049C00001212046FEF780FC00B11CBD2288002199
:1049D0000091A8480B46FFF7FBF9C0461CB5084CF0
:1049E00001212046FEF75DFC9E49884200D01CBD97
:1049F00022880021009170480B46FFF7E9F9C04674
:104A0000A82A0020FEB51D4616460F460446FEF7AE
:104A100065FC204600F0ACF97D603E600898B86007
:104A200002946068011D002201910B684BB112CB0A
:104A3000083B711A2946A14103D319460C311A4685
:104A4000F3E7FB6032B1D760016B406B891BA84173
:104A500002D204E0019807600298FFF75DFEFEBCF9
:104A600001BC8646FEF742BC70B50446FEF736FC34
:104A70002068C068804760683A21415C01BB0146FC
:104A8000393101220A704168A1B1204600F070F965
:104A90006068026B436B416860C90839521BB341BF
:104AA00008D3CA6842600268002AECD08868904740
:104AB0006068E8E73921002242542046FFF72CFEC7
:104AC00070BC01BC8646FEF711BC80B500F001F851
:104AD00080BDB0B50446FEF72FFFFEF7FFFB204672
:104AE00000F046F96068046B456BFEF7FFFB20465B
:104AF0002946B0BDB0B50C460546FEF7EFFB686829
:104B00004168A14207D059B10846C968A142FAD10B
:104B1000E168C16004E0E16841602846FFF7FCFD00
:104B2000B0BC01BC8646FEF7E1BBB0B50C460546FD
:104B3000FEF702FFFEF7D2FB68680460B0BC01BC60
:104B40008646FEF7D3BB0000C4480121016000F097
:104B5000F9B9C046024803210160FEF7E9BFC0462B
:104B600008010540E0B5FEF7B9FB3D480188C1B139
:104B7000491E0180080407D10E4801688022914334
:104B8000016039485AF09CFAFEF7B0FB8CBC01BCBE
:104B900086467046714672467346F4468EF3008828
:104BA0007447FEF7A3FB0021009103480A460B4619
:104BB000FFF70EF90C900B4024010480F0B50020A3
:104BC00011B90AB1C04310E08C18294D0126A14249
:104BD00009D02F6837432F602F68BF07FCD56F6857
:104BE0000F70491CF3E703B11A60F0BC02BC8E469B
:104BF000714672467346F4468EF300887447C04689
:104C0000E0B5FEF76BFB16490888164A90421DD0A6
:104C1000421C0A8068B914485AF056FA13485AF0F0
:104C200067FA1348C16880220A43C2600168090616
:104C3000FCD5FEF75BFB8CBC01BC8646704671461A
:104C400072467346F4468EF300887447FEF74EFBB7
:104C50000021009107480A460B46FFF7B9F8C04605
:104C6000A02A0020FFFF0000190000801F000004A0
:104C700000900B40230104800348406800F038B8DE
:104C80000148406800F062B8A81600200348406858
:104C900000F02EB80148406800F058B8C416002053
:104CA0000348406800F024B80148406800F04EB85E
:104CB000E01600200348406800F01AB80148406838
:104CC00000F044B8FC1600200348406800F010B81B
:104CD0000148406800F03AB81817002003484068BF
:104CE00000F006B80148406800F030B834170020E2
:104CF000B0B504460068144D0540E86941F2001162
:104D000008420CD06968112081436960A26A32B1FF
:104D10003421615C014202D0E06A00219047E869D9
:104D200080050CD56868022188436860A26A32B1A8
:104D30003420205C800702D5E06A01219047E869B1
:104D4000E861A869A861B0BDE0FF0FFF10B5044697
:104D5000406B1121084202D0E06C8047606B8007F5
:104D600000D410BDA06C10BC02BC8E4600470000F1
:104D7000F0B585B0044646683A20305C002866D11C
:104D80002068406880476168096A88425FD0316A5C
:104D90003062401AB168F46804406748814201D12A
:104DA00000224EE0049137463A37634A00212046FC
:104DB00003910B46FBF70AFB0D467F780290C7B1C3
:104DC0003A46FBF7F2FA044601913A46FBF7DDFA60
:104DD000029A101A8D41B16A0918B162F06A6841ED
:104DE000F062049D4A1B0246039B9A4122D2019A1B
:104DF00027E0049A039F3B46FBF700FB0446019122
:104E0000049A3B46FBF7E2FA3B46029A101A8D41A0
:104E1000B16A4118B162F06A6841049FF062CA1B2E
:104E200002469A41019A0CD3C91BB1629841F062C3
:104E3000641C05E0491BB1629841F062641C019A50
:104E40005A41306B00193063706B5041706305B08C
:104E5000F0BDC046014801210160704708000540CF
:104E6000314801210160BFF34F8FBFF36F8F70474F
:104E70000248012101604A480160704704E200E0F5
:104E800080B5294801210160BFF34F8FBFF36F8FB9
:104E900026485AF015F935480021018080BDC046EA
:104EA000004870478C5C000070B5304801881E4E89
:104EB00031B101203060BFF34F8FBFF36F8F70BDF2
:104EC00001250580194C0022204640F200215AF0AD
:104ED00007F920465AF0F8F815485AF009F9154C28
:104EE0002046FCF7FBFF1449B0FBF1F0401E032104
:104EF000C906014321602948606010480068C0214C
:104F00000F4A42503560BFF34F8FBFF36F8F680772
:104F1000216801432160A8072168014321602068BE
:104F20008001FCD570BDC04684E100E00200805ED7
:104F3000020000040000054040420F0008ED00E0C0
:104F4000494B00000248016809B102480847704710
:104F500088160020605C000080B50448008808B90D
:104F6000FFF7A2FF0248006880BDC046402B00202A
:104F70000C000540074A01215160074B19600228C7
:104F800000D80220054B984200D318461060044810
:104F9000016070470400054084E200E0FFFFFF006D
:104FA00004E100E080B5054900F050F8FBF754FD3E
:104FB00080BC02BC8E4600F003B8C04600007A44B4
:104FC00070B540F2E8364643FEF746FB0446FFF76D
:104FD0007CFD05462046FFF778FD401BB042F9D323
:104FE00070BD70B50446FEF763FB0546FFF76DFD27
:104FF00006462846FFF769FD801BA042F9D370BD25
:10500000B0B514460D46FDF747FD38B10168CB68D1
:10501000294622469847002802D4B0BD092400E062
:105020004442FBF757F904600020C043B0BD10B5FF
:105030008A68002A02DCFBF789FD10BD521E8A60D7
:105040004A68C0B2531C4B60107010BD70B542006E
:1050500064414B005C41120E39D01B0E38D0FF2A40
:105060003CD0FF2B3AD0D2187F3A40024902400A86
:10507000490A4518ED0106004E43000A090A484353
:105080000104731A4019190C4318990F04D05B08D6
:10509000012149075B1A521CD80904D3401CF503AF
:1050A00001D19D0607D0FF2A08D2D50506D0E40716
:1050B0002043401970BD0125A843F4E7002A01DC14
:1050C000E00770BD2402FF202043C00570BD1B0E09
:1050D000FF2A03D0FF2B01D0E00770BDFF26360664
:1050E0004500B54206D84D00B54203D8D218FF2A74
:1050F00000D0E7E7004870BD0000C07F445B0000BF
:105100005A5B00000000000000000000835B00000C
:10511000785B00006D5B0000695B0000495B00008C
:10512000000000003E5B0000545B00004E5B00008E
:105130005F5B0000655B0000725B0000945B000039
:105140008B5B00008F5B0000885B00007C5B0000D5
:10515000D007000001000000010000000600000070
:10516000000000000000000000000000010000003E
:1051700000000000000000000000075007000000D1
:10518000020000000010175000080000021001008B
:1051900000101750000800000200000000404750B7
:1051A00000070000024001000040475000070000D7
:1051B00004000000005057500000080006000000E6
:1051C0000000075000000007080000000010175002
:1051D000070000000D0000000040475000003000B4
:1051E0000F00000000000750000000300001000028
:1051F0000020275007000000020100000010175097
:1052000000060000040100000020275000000C00F0
:105210000401000000505750000007000601000084
:1052200000101750000000060801000000000750A1
:10523000050000000A010000004047500006000081
:105240000C01000000000750000006000E010000E5
:1052500000303750000000070002000000202750F7
:10526000080000000202000000303750000B000070
:105270000402000000202750000008000422010062
:1052800000202750000008000402000000404750A2
:1052900000000B00044201000040475000000B00DA
:1052A0000602000000404750000000050802000010
:1052B00000101750080000000902000000303750AD
:1052C000700000000B0200000000075000300000DA
:1052D000000300000030375005000000020300000A
:1052E00000000750000900000603000000101750DE
:1052F000000000030A030000001017500003000024
:105300000C030000002027500000070000040000EC
:1053100000303750070000000604000000505750CE
:105320000000000809040000002027507000000061
:105330000B04000000303750007000000F04000024
:105340000020275000000030010500000000075039
:105350004000000001050000001017502000000070
:1053600002050000000007500003000005050000D2
:105370000020275000002000060500000040475094
:10538000000000060A05000000505750000600000B
:105390000907000000101750A00000000B070000D4
:1053A00000000750008000000B07010000000750BC
:1053B000008000000B070000004047500070000014
:1053C0000B4701000040475000700000FFFFFFFF47
:1053D000FFFFFFFF00000000010000000000075079
:1053E0007000000003000000001017500080000053
:1053F000031001000010175000800000030000009F
:10540000004047500070000003400100004047503A
:105410000070000005000000000007500000B00010
:1054200005000000005057500000800007000000F9
:105430000000075000000070090000000010175025
:10544000700000000C000000004047500000030006
:105450000E000000000007500000000301010000E2
:1054600000202750700000000301000000101750BA
:105470000060000005010000002027500000C0006F
:1054800005010000005057500000700007010000A7
:1054900000101750000000600901000000000750D4
:1054A000500000000B010000004047500060000069
:1054B0000D01000000000750000060000F01000017
:1054C000003037500000007001020000002027501B
:1054D00080000000030200000030375000B00000E0
:1054E0000502000000202750000080000522010076
:1054F00000202750000080000502000000404750B7
:105500000000B00005420100004047500000B0001C
:105510000702000000404750000000500A0200004F
:1055200000303750000700000C0200000000075058
:10553000000003000D020000002027500000700052
:10554000010300000030375050000000030300004A
:1055500000000750009000000703000000101750E3
:10556000000000300B030000001017500030000056
:1055700001040000003037507000000007040000F4
:105580000050575000000080080400000020275001
:10559000070000000A040000003037500007000038
:1055A0000D04000000101750000080000E040000E1
:1055B00000202750000000030005000000000750F5
:1055C0000400000000050000001017500200000059
:1055D0000305000000000750003000000405000033
:1055E000002027500000020007050000004047503F
:1055F000000000600B0500000050575000600000E4
:1056000008070000001017500A0000000A070000F9
:1056100000000750000800000A07010000000750C2
:10562000000800000A070000004047500007000083
:105630000A4701000040475000070000FFFFFFFF3E
:10564000FFFFFFFF000000000D26000015260000F0
:1056500041260000392600002526000031260000E2
:10566000052600001D2600000100000000000000CB
:1056700000000000312A0000CD2600004D26000069
:10568000752600006526000071260000112A000022
:1056900095260000152A0000212A00006B26000034
:1056A0002B2A0000FF290000572E0000F9290000D6
:1056B0000B2A0000152E00001F2A00000000000029
:1056C00000000000812A00007D2A00008D2E0000CD
:1056D0000000000000000000112C0000012C000060
:1056E0007D2B00000000000000000000112C0000D5
:1056F000852C0000472C0000FFFFFFFF0700000083
:10570000FFFFFFFF06000000FFFFFFFF000000009B
:10571000952C00003D2C0000452C00002F73746474
:10572000657272002F737464696E002F7374646FF6
:105730007574000000000000040000000800000074
:105740000C00000000000000040000000800000041
:1057500010000000001BB7000000000000800000E7
:10576000001BB70001020204A90000002D01000087
:1057700099010000350200001404000028120020E6
:10578000040000000000000000F005004C5A00007A
:1057900001000000040000000000061000000A00E4
:1057A000545A000001000000B0570000B02A002049
:1057B000793A00003D3B0000313A0000253A0000F4
:1057C000593B0000413A0000513A0000713A000094
:1057D000010000000080000018000000040000002C
:1057E000903C8002000200000600000006FF430714
:1057F0000020000003000000030000000000010082
:105800001D00000001000000000000010700000072
:1058100007000000000002000C0000000C00000067
:1058200000000400FFFFFFFF010000400200000035
:105830001C0000041CFE03400800000007000004D8
:1058400007000040200000000C0000080C00008051
:10585000800000001D0000041D0000770001000012
:105860001A0000049A3C804200200000040000045A
:105870000400005F00000200050000040500405F16
:10588000000002001000000810000080000000016D
:105890001100000811000080000000021200000842
:1058A00012000080000000041300000813000080B4
:1058B000000000080C0000040C002066010000003D
:1058C0000D0000040D004066020000000E00000400
:1058D0000E006066040000000F0000040F00A066C8
:1058E00008000000060000080600C0A61000000026
:1058F00010000004103D805700000100110000045A
:10590000913DA0570000020012000004123C8C7769
:105910000000040013000004933CAC770000080072
:1059200014000004143DCC770000100015000004A2
:10593000953DEC77000020000800000408000040BE
:1059400001000000090000040900004002000000FE
:105950000A0000040A0000400400000000000008E3
:1059600000FC07B6000001000100000801FD27B699
:10597000000002000200000802FE47B6000004001A
:105980001800000418000040010000001600000884
:1059900016000080000001001700000817000080BA
:1059A000000002001A0000081A0000800000100029
:1059B0001B0000081B000080000020001F000004E6
:1059C00019000080000000001B0000049B3C804286
:1059D000010000000800000808000080000001002D
:1059E000090000080900008000000200000000001B
:1059F00080DE280080C84D0000A7760000349E009D
:105A00008012C700809FEE00007E1701805C40017D
:105A100080E9670100C890010055B801000000004E
:105A200080DE2800001A4F0080F8770080859F00F4
:105A30000064C80000F1EF0080CF180100AE410102
:105A4000003B69018019920180A6B90100000000A5
:105A500000080000000006100008000020536563E5
:105A6000757265206D61696E207468726561643A53
:105A7000202564200D0A0053656375726520524F1E
:105A80004D2073746172742F73697A653A2030788F
:105A9000253038782F3078253038780A002B2D2D96
:105AA0002D2D2D2D2D2D2D2D2D2D2D2D2D2D2D2D26
:105AB0002D2D2D2D2D2D2D2D2D2D2D2D2D2D2D2D16
:105AC0002D2D2D2D2D2D2D2D2D2D2D2B0D007C2013
:105AD00020202053656375726520636F64652069BB
